:020000040800F2
:10000000F05100209503000879370008B734000844
:100010002D360008131F00088D4000080000000066
:10002000000000000000000000000000D5020008F1
:10003000D11F0008000000003103000889390008C2
:10004000AF030008AF030008AF030008AF030008C8
:10005000AF030008AF030008AF030008AF030008B8
:10006000AF030008AF030008AF030008AF030008A8
:10007000AF030008AF030008AF030008AF03000898
:10008000151F0008211F0008AF030008AF03000878
:10009000AF030008AF030008AF030008AF03000878
:1000A000AF030008453A0008AF030008AF0300089B
:1000B000AF030008AF030008AF030008AF03000858
:1000C000AF030008AF030008AF030008AF03000848
:1000D000AF030008AF030008B13F000881400008EB
:1000E000AF030008AF030008AF030008AF03000828
:1000F000AF030008AF030008AF030008AF03000818
:10010000AF030008AF030008AF030008AF03000807
:10011000AF030008AF030008AF030008AF030008F7
:10012000AF030008AF030008AF030008AF030008E7
:10013000AF030008AF030008AF030008AF030008D7
:10014000AF030008AF030008AF030008AF030008C7
:10015000AF030008AF030008AF030008AF030008B7
:10016000AF030008AF030008AF030008AF030008A7
:10017000AF030008AF030008AF0300080000000051
:10018000AF030008AF03000800F002F800F092F897
:100190000AA090E8000C82448344AAF10107DA45E2
:1001A00001D100F087F8AFF2090EBAE80F0013F0A2
:1001B000010F18BFFB1A43F001031847485E000007
:1001C000685E0000103A24BF78C878C1FAD8520798
:1001D00024BF30C830C144BF04680C6070470000C1
:1001E0000023002400250026103A28BF78C1FBD840
:1001F000520728BF30C148BF0B6070476E2900F01E
:10020000A782702900F0E983662905F04C866529EC
:1002100005F04986672905F04686612905F045867F
:1002200003681B0A28BF41F08001692900F054824D
:10023000642900F05182752900F04E826F2900F088
:100240007683782900F0B583E92900F01183E42949
:1002500000F00E83F52900F00B83EF2900F0738383
:10026000F82900F0B4830368DB0928BF41F080015E
:10027000632901F00B81732901F01081E32901F05A
:100280001B81F32901F02081002070471FB505F084
:1002900005FE01F06BF904000020002105F0E8FDE7
:1002A000401C60600020002105F0CCFDE0601FBD17
:1002B00010B510BD01F02CF91146FFF7E7FF03F070
:1002C00032FF01F009FA03B4FFF7F2FF03BC01F0BB
:1002D00051FA00002C4B19680868B0E8F04F80F321
:1002E0000988BFF36F8F4FF0000080F311887047CB
:1002F0000000000008480068006880F308884FF09C
:10030000000080F3148862B661B6BFF34F8FBFF36D
:100310006F8F00DF00BF00BF08ED00E0DFF80C00CA
:10032000016841F470010160704700BF88ED00E092
:10033000EFF30980BFF36F8F134B1A681EF0100F95
:1003400008BF20ED108A20E9F04F106009B44FF08B
:10035000500080F31188BFF34F8FBFF36F8F04F00D
:10036000AFFE4FF0000080F3118809BC19680868DF
:10037000B0E8F04F1EF0100F08BFB0EC108A80F309
:100380000988BFF36F8F704718000020EFF30580D6
:10039000704700000948804709480047FEE7FEE72C
:1003A000FEE7FEE7FEE7FEE7FEE7FEE7FEE7FEE725
:1003B00004480549054A064B70470000353A0008D5
:1003C00089010008F04B0020F0510020F04D002082
:1003D000F04D002053EA020C00F069802DE9F04B4B
:1003E0004FF00006002B1FBFB3FA83F503FA05F4A4
:1003F00024FA05F65E4012BF1643B2FA82F502FAFD
:1004000005F4C5F120051EBF22FA05FC44EA0C04E0
:10041000203556EA044C4FEA144418BF641C4FF0D0
:1004200000084FF00009904271EB030C39D300290A
:1004300019BFB1FA81F701FA07F6B0FA80F700FAAE
:1004400007F6C7F120071EBF20FA07FC46EA0C0694
:100450002037B6FBF4FCA7EB0507103F07F01F0B96
:10046000CBF120060CFA0BFB2CFA06F644BFB34680
:100470000026202FA4BF5E464FF0000B5BEA060C5F
:1004800008BF4FF0010B19EB0B09ABFB027C48EBEB
:100490000608C01B06FB02CC0BFB03CC71EB0C0166
:1004A000C1E70B46024641464846BDE8F08B13B50E
:1004B0004FF000004FF00001AFF30080BDE81C409A
:1004C000704700001CB50C46064B7B446946009003
:1004D000204600F056F904460020694600F064F911
:1004E00020461CBDDB02000010B5431C02E010F8E2
:1004F000011B71B18107FAD14FF0013202C88C1A89
:100500008C4314EAC211F9D0C01A0A0603D0C01EE7
:1005100010BDC01A10BD0A0401D0801E10BD090212
:10052000FCD0401E10BD032A40F2308010F0030CB6
:1005300000F0158011F8013BBCF1020F624498BF36
:1005400011F801CB00F8013B38BF11F8013BA2F1D3
:10055000040298BF00F801CB38BF00F8013B11F04E
:10056000030300F00983083AC0F0088051F8043B07
:10057000083A51F804CBA0E80810F5E7121D5CBF5B
:1005800051F8043B40F8043BAFF30080D20724BF8E
:1005900011F8013B11F801CB48BF11F8012B24BF22
:1005A00000F8013B00F801CB48BF00F8012B704771
:1005B00002F0FF0343EA032242EA024200F010BBCA
:1005C0004FF0000200B5134694469646203922BFEC
:1005D000A0E80C50A0E80C50B1F12001BFF4F7AF37
:1005E000090728BFA0E80C5048BF0CC05DF804EB19
:1005F000890028BF40F8042B08BF704748BF20F887
:10060000022B11F0804F18BF00F8012B7047704784
:100610007047704770B5044685690068C10601D50A
:10062000302600E02026C00707D070BDD4E90121A4
:1006300030469047206A401C20626D1EF6D570BD82
:1006400070B5044685690078C00707D170BDD4E94C
:10065000012120209047206A401C20626D1EF6D5A3
:1006600070BD09684A0501D540B27047C905FCD57F
:1006700000B2704709684A0501D5C0B27047C90584
:10068000FCD580B2704770B50C460546012A05D0EE
:100690002878800600D5EA69002302E0012305E0FE
:1006A0005B1C934202D2E05C0028F9D1A869E618ED
:1006B000C01AA861286A184428622846FFF7AAFFD2
:1006C00004E0D5E9012114F8010B9047B442F8D3B6
:1006D0002846FFF7B5FF70BD2DE9F041064600241E
:1006E00010687529314616A510D0FFF7BAFF00280B
:1006F00002DA404213A507E031688A0701D512A546
:1007000002E0490704D511A5012401E0FFF7B2FF7B
:1007100000210A2206F1240709E0B0FBF2FCB0FB3D
:10072000F2F302FB1C00303078541846491C0028B4
:10073000F3D123462A463046BDE8F04100F0B5BA71
:10074000000000002D0000002B0000002000000031
:1007500011680268006A530501D508700AE0D305E4
:1007600001D5088006E0130603D5C217C1E90002CF
:1007700000E008600120704701694A1C02610878A6
:10078000704700B58FB0CDE90131002105910549D1
:100790007944CDE903101146684600F029F90FB0FD
:1007A00000BD0000E5FFFFFF0A6802F8010B0A60C8
:1007B000704700002DE9FF5F15468A460446DFF8C2
:1007C000AC80F8440027D8E900103E46CDE900107F
:1007D00010E03AF816106A4602A800F079FE411CB3
:1007E00007D02178890603D5E269391891420DD8DE
:1007F0000744761C2078800602D5E069B84205DD02
:10080000AE42E6DB3AF816000028E2D1A069C01B30
:10081000A0612046FFF7FEFED8E90010CDE90010E8
:10082000002017E03AF818106A4602A800F050FEBF
:10083000B0F1FF3F81460BD000250DF1080B05E01C
:10084000D4E901211BF8050090476D1C4D45F7D3F5
:1008500008F10100B0428046E4DB206A384420629F
:100860002046FFF7EDFEBDE8FF9F00003657000071
:100870002DE9F0418046D21D22F007020025D2E981
:100880000002F52915A614D0011E72F1000106DA46
:100890000023D0EB030063EB020211A608E0D8F8B6
:1008A00000108B0701D50FA602E0490701D50EA65F
:1008B00001251146002408F1240704E000F0B0F9F6
:1008C00030323A55641C50EA0102F7D12B463246C9
:1008D00021464046BDE8F04100F0E7B900000000C5
:1008E0002D0000002B0000002000000030B400218B
:1008F00000F1240408E002F00705D208303542EA8E
:100900004372DB086554491C52EA0305F3D10468BD
:10091000002310A2250707D5A40600D421B1C4697D
:1009200001230DA2641EC46130BC00F0BEB910B535
:10093000044621461068FFF79DFE02462046BDE8AA
:1009400010400023D2E7D21D22F00701D1E9002395
:10095000CCE700000000000030000000F0B40D46BD
:100960000188090502D5214C7C4402E01F4C7C44DF
:100970000E34002100F1240608E002F00F071209EE
:10098000E75D42EA03721B097754491C52EA0307E8
:10099000F3D102780023120704D5702D06D009B1D7
:1009A000022311342246F0BC00F07FB90123103439
:1009B000F8E770B504460D4621461068FFF75AFE69
:1009C000024629462046BDE870400023C6E7D21DF6
:1009D00022F00703D3E90023C0E70368126843F05D
:1009E000200303600823C3610023B7E79855000084
:1009F0002DE9F05F894604464FF0000ADFF874B134
:100A0000FB44C0F820A02046E1688847002874D045
:100A1000252806D0D4E901219047206A401C206295
:100A2000F1E700265F462046E16888472028054612
:100A300007DB312D05D2781910F8200C08B10643D8
:100A4000F1E7B00701D526F00406C4F81CA0002782
:100A5000C4F818A02A2D09D0284603F040FB38B36B
:100A600004EB8708303DC8F8185019E059F8041B0A
:100A7000204604EB87029161E1688847012F054613
:100A800018D1E069002820DA26F020061DE0D8F809
:100A9000180000EB800005EB40003038C8F8180063
:100AA0002046E1688847054603F019FB0028EED18F
:100AB000012F0AD02E2D08D12046E16888477F1CDF
:100AC0000546022F46F02006C4DBA069002803DAA1
:100AD000404246F00106A061F00701D026F0100662
:100AE0006C2D0BD0682D09D04C2D39D06A2D35D006
:100AF000742D35D07A2D33D016E038E0E1682F46DA
:100B000020468847B842054609D16C2F26D04FF4BD
:100B10008060E168064320468847054604E06C2F64
:100B20001AD04FF4807006430DB3A5F14100192887
:100B300002D8203546F400664A46294620462660FB
:100B40004E46FFF75BFB80B101280BD0F61D26F067
:100B5000070000F1080956E74020E4E78020D8E7C5
:100B60000020D6E706F104094DE7284652E7206A3F
:100B7000BDE8F09F2855000010B5203AC0F00B806A
:100B8000B1E81850203AA0E81850B1E81850A0E891
:100B90001850BFF4F5AF5FEA027C24BFB1E81850EB
:100BA000A0E8185044BF18C918C0BDE810405FEA5B
:100BB000827C24BF51F8043B40F8043B08BF7047D7
:100BC000D20728BF31F8023B48BF11F8012B28BFDC
:100BD00020F8023B48BF00F8012B70474FF000029D
:100BE0000429C0F0128010F0030C3FF4EBACCCF100
:100BF000040CBCF1020F18BF00F8012BA8BF20F8AD
:100C0000022BA1EB0C01FFF7DDBC5FEAC17C24BF26
:100C100000F8012B00F8012B48BF00F8012B7047AA
:100C200030B5B0F10A024FEA900E71F100034EEABE
:100C3000817EB0EB0E0061EB91014FEA101E4EEA8F
:100C4000017E10EB0E0041EB11114FEA102E4EEA1F
:100C5000016E10EB0E0041EB11214FEA104E4EEAEF
:100C6000014E10EB0E0041EB1141401841F1000123
:100C70004FEAD00040EA41704FEAD10110EB800505
:100C80004FEA810444EA907444EB01046D1944EB8B
:100C90000404521BA3414FF0000348BF0A3200D5A1
:100CA00030BD401C41F1000130BD2DE9F0470D463B
:100CB00099469246044600F124080168880604D546
:100CC000E06921F01001216000E00120A84201DD6F
:100CD000471B00E00027A1697A1902EB0900081AF6
:100CE000A0612078C00602D42046FFF793FC0026BE
:100CF00008E0D4E901211AF806009047206A401C58
:100D0000761C20624E45F4DB2078C0060AD52046CA
:100D1000FFF780FC06E0D4E9012130209047206AEB
:100D2000401C2062381EA7F10107F4DC07E0D4E97B
:100D3000012118F805009047206A401C2062281EF7
:100D4000A5F10105F3DC2046FFF77AFC20780006C8
:100D500002D50220BDE8F0870120FBE770472DE9AE
:100D6000FF4F0C461E464FF0FF378BB0D2E9000113
:100D7000DDF860800A908A46C1F30A5505B93D4600
:100D8000002108464FF00000BAF1000F00F44000C7
:100D900005DA00EB80004FF4400101EA50004FEA11
:100DA0009059B9F1010F00DDB9460A9850EA4A009E
:100DB0000ED044F61050A5F2FF3545432F14B8F17C
:100DC000000F1ED07542291E1EDDC9F100021CE075
:100DD000B8F1010F4FF0000001D0302103E0F243E1
:100DE00005E02154401CB042FBDB304600220021CC
:100DF00021540B99C1F80880C1E900200FB0BDE86B
:100E0000F08FBD1B6D1CDEE74A4600DA694206A87A
:100E100000F0F0FB06AB93E8070003AB83E80700A4
:100E200050460A9900F0ADFC8DE80700A0F500508F
:100E30001F3800900398002D0ADD42F21F014A4638
:100E40000844002303A90390684600F016FF09E058
:100E5000A0F500504A461F38002303A903906846B6
:100E600000F020FF8DE807000004000C03D04FF0D5
:100E7000FF30410800E01046B8F1000F03D0002217
:100E8000009215461EE0751E05D4FFF7C9FE3032EC
:100E900062556D1EF9D5B3460122084302D00022E7
:100EA0007F1C04E02078302801D100227F1E002A18
:100EB000099784D01DE0112D07DAFFF7B1FE30321B
:100EC00062556D1C50EA0102F5D1084302D000982A
:100ED000C8B10EE00021681E05E0235C625C63542B
:100EE0002254401E491C8142F7DBAB46A81B401E22
:100EF0000990002004F80B000B98099AC0F80880AC
:100F0000C0E9002B7AE711264FF0000857E72DE9DA
:100F1000F04F88460446D21D22F0070191B0D1E976
:100F20000001CDE90A0103F0B2F802460B98C00FA8
:100F300001D02D2007E02068810701D52B2002E099
:100F4000202101EAC000032A099001D0072A05DB0D
:100F500003464146204600F00DFB0BE12078800659
:100F600001D5E06900E00620B8F1650F814606D0A2
:100F7000B8F1660F18D0B8F1670F70D131E00020DA
:100F8000B9F1110F009001DB112301E009F1010318
:100F90000AAA01A90CA8FFF7E2FEDDE90C70002601
:100FA00009F10105834647E001204B4600904FF0D0
:100FB00000470AAA01A90CA8FFF7D1FEDDE90DB090
:100FC0000C995D46002610B909F101000D18B9EB26
:100FD000050003D4C0F1FF3609F10105A5EB0900B6
:100FE0002BE0B9F1010F01DA4FF001090020B9F14E
:100FF000110F0090484601DD112300E003460AAAC4
:1010000001A90CA8FFF7ABFEDDE90C704D460026E8
:101010008346207800070AD4AB4500DA5D4601A874
:10102000012D04DD411911F8011C302907D04F456D
:1010300002DA17F1040F04DA012082460FE06D1E78
:10104000EEE7002F02DCED1B3E4403E0781CA842D3
:1010500000DD7D1CB81B00F1010A4FF0004720782D
:10106000000703D4AA4501DB4FF0FF3A0021B7F196
:10107000004F0DF143088DF8431024D002202B239C
:10108000002F01DA7F422D230A21021EA0F1010068
:1010900000DC5FB197FBF1FC97FBF1F201FB1C7CDC
:1010A00017460CF1300C08F801CDEEE7A8F101006D
:1010B00003702188090501D5452100E06521A0F1D3
:1010C000010800F8011C09980FA9A1EB0807FF1DF2
:1010D00000B10120411901EBEA70A1693844081AF6
:1010E000401EA0612078C00602D42046FFF792FA85
:1010F000099828B1D4E901219047206A401C206258
:101100002078C00622D52046FFF784FA1EE0002E84
:1011100004DBB34502DD01A8805D00E03020D4E9A6
:1011200001219047206A401C2062761CAAF1010030
:101130005FEA000A0AD100F019FAC0680168405C51
:10114000D4E901219047206A401C2062281EA5F1A5
:101150000105DCDC07E0D4E9012118F8010B904718
:10116000206A401C2062381EA7F10107F3DC2046EC
:10117000FFF766FA032011B041E600002DE9F04FB9
:1011800004460D46D21D22F0070089B0D0E9009731
:101190004846394602F07BFF0246F80F01D02D2366
:1011A00007E02068810701D52B2302E0202101EA16
:1011B000C0038DF820300BB1012000E00020032A8D
:1011C000824601D0072A04DB2946204600F0D2F9E6
:1011D0003FE12078800601D40D2500E0E569C7F3E2
:1011E0000A560D2D49DA00214FEA175B08464FF0E9
:1011F0000000002F00F4400007DA00EB80004FF4FD
:10120000400100EBD07001EA60008115012901DD89
:101210004FF0FF3100224FEA850CBCF1180F06D3C6
:101220001346ACF118004FF08052C24003E04FF477
:10123000801323FA0CF30CF10C0CBCF1200F04D337
:10124000ACF1200C09FA0CF001E007FA0CF00029CF
:101250004FF0004801DD18B90FE00ED140450CD326
:1012600019EB02095F4121B9404502D19F4329EAA8
:101270000209BBEB175F00D0761C2088000502D561
:101280007B48784402E07A487844193808AA302329
:1012900002F80A30037C0AF10101002E0AF1020A69
:1012A00053546A4602DC4FF0300101E04FF0310147
:1012B0004FF001088DF8001002D0A6F2FF3603E0CF
:1012C00059EA470100D06B4E002D02DC2178090756
:1012D00004D54FF002082E218DF80110C4460021DC
:1012E0000BE0C7F303433F01C35C491C6D1E02F8CA
:1012F0000830052908F1010801DA002DF1DC002190
:101300000CE000EB1973491C1B786D1E082902F8CC
:1013100008304FEA091908F1010801DA002DF0DC64
:1013200021688B0602D516E0A8F10108E04505DD2D
:1013300002EB080313F8013C302BF5D0B8F1000F95
:1013400009DD02EB080313F8013C2E2B03D109073A
:1013500001D4A8F10108002D05DD3E2102F8081096
:101360006D1E08F10108407C002E02F8080008F10B
:10137000010804DA2D20764202F8080002E02B2052
:1013800002F808000A214FF47A70864208F1010839
:101390000BDB96FBF0F3303302F8083096FBF0F3EA
:1013A00008F1010800FB136601E0642E0CDB6420E9
:1013B00096FBF0F3303302F8083096FBF0F308F1B7
:1013C000010800FB136601E00A2E06DB96FBF1F034
:1013D000303002F8080008F1010896FBF1F001FB3B
:1013E0001060303002F80800A16908F1010808EB2C
:1013F000050202EB0A00081AA0612078C00602D498
:101400002046FFF707F9216A08AE01EB0A002062C7
:1014100004E0D4E9012116F8010B9047BAF1010A62
:10142000F7D22078C00602D52046FFF7F3F86E46C3
:1014300009E016F8010B3E280FD0D4E901219047AE
:10144000206A401C2062B8F10108F2D22046FFF762
:10145000F7F809B00320BDE8F08F206A2844206225
:1014600003E0D4E90121302090476D1EEBD3F8E76B
:10147000CA4C000002FCFFFF10B5436913B1AFF383
:10148000008001E0FFF7FFF8012010BD127800F1A5
:1014900024010A7000224A700122EDE711684FF022
:1014A000FF32E9E710B5436913B1AFF3008001E003
:1014B000FFF780F9012010BD128800F12401828419
:1014C0000022C2840122EDE711684FF0FF32E9E704
:1014D00070B516460C46054600F040F8036893F8D0
:1014E0000101012806D0FF2C0FD8185D68B101203A
:1014F0002C7070BDD3F807013246214603F2071362
:1015000003442846BDE8704018474FF0FF3070BDD7
:10151000754600F0EBF8AE4605006946534620F0EC
:101520000700854618B020B5FEF742FFBDE8204011
:101530004FF000064FF000074FF000084FF0000B8F
:1015400021F00701AC46ACE8C009ACE8C009ACE842
:10155000C009ACE8C0098D467047000010B500F026
:1015600005F8001D10BD00BF094900000048704784
:10157000B04B00202DE9F0411F46044603260168C8
:10158000072A01F4006004DB08B116A505E016A5E2
:1015900003E008B115A500E015A521F010002060BA
:1015A000A069C01EA0610FB1401EA0612046FFF7D8
:1015B00031F84FB1D4E9012138469047206A401CE8
:1015C0002062C01C206206E0206AFAE7D4E901210B
:1015D00015F8010B9047761EF8D22046FFF730F839
:1015E000BDE8F0814E414E006E616E00494E4600EE
:1015F000696E66002DE9F047814616468AB0354887
:1016000078440DC88DE80D0032487844801C03AC46
:101610000DC884E80D0041F69B300844372190FB4B
:10162000F1F290FBF1F5A5F1800501FB12041B3CE2
:1016300002D56442012000E00020DFF898A0804637
:101640000027FA44AAF1BE0A0EE0E0070AD03246AB
:10165000684607EB470101230AEB810100F022FBFA
:101660008DE8070064107F1C002CEED1194F7F44D9
:10167000AE3F19E0E80715D007EB04100DF1180A8A
:1016800090E80E008AE80E00C068F04201D1981977
:1016900008903246012306A903A800F003FB03AB20
:1016A00083E807006D10641C002DE3D14FF00103A7
:1016B00032466946B8F1000F03A802D000F0DDFA07
:1016C00001E000F0EFFAC9E90001C9F808200AB00A
:1016D000BDE8F087DC49000010B50446AFF3008098
:1016E0002046BDE81040FEF7EEBD00000048704700
:1016F000904B00204FF0013C50F8042B51F8043B74
:101700009A4221D1A2EB0C03934313EACC1317D1D5
:1017100050F8042B51F8043B9A4215D1A2EB0C036C
:10172000934313EACC130BD150F8042B51F8043B2C
:101730009A4209D1A2EB0C03934313EACC13DBD0FA
:101740004FF00000704700BFD01A01BAB1FA81F122
:1017500001F0180122FA01F0CB40C1F12001DBB207
:10176000C0B2C01A2CFA01F3D11A914311EAC31185
:10177000E6D1704701491820ABBEFEE72600020003
:1017800070475FEA400C08BF91F0000F4FEA8C23CE
:101790004FEAC12243EA51514FEA1C5018BF00F5ED
:1017A000F0404FEA300018BF41F000415FEA6C5C46
:1017B00000F02980BCF1FF3F08BF40F08040704737
:1017C000130C06BF12044FF0100C4FF0000C130E58
:1017D00004BF12020CF1080C130F04BF12010CF12C
:1017E000040C930F04BF92000CF1020CD30F04BF42
:1017F00052000CF1010C11464FF00002A0F11F0045
:10180000A0EB0C00704711F0004F08BF704731F09B
:1018100000413FF4D5AF0B0C06BF09044FF0100C8C
:101820004FF0000C0B0E04BF09020CF1080C0B0F5B
:1018300004BF09010CF1040C8B0F04BF89000CF1EB
:10184000020CCB0F04BF49000CF1010CCCF12003BA
:10185000A0EB0C0022FA03F302FA0CF241EA0301B6
:1018600000F10100704720F07F4C80EA030023F074
:101870007F47ACEB070303F57C5300F0004003F116
:10188000FF032DE980494FEA154B09B44FEA144391
:1018900025EA0B4E24EA03480FF2042606EB132731
:1018A00049083E785FEA320203FB0667C7F5000786
:1018B00007FB06F64FEA54374FEAD64606F1020612
:1018C00007FB066CCCF1005C4FEA1C472CEA074C86
:1018D00007FB06F40CFB06F504EB15464FEA9616DB
:1018E00034BF00204FF000404FEAD13706FB07FC21
:1018F0004FEA1C4C0CFB0BF7D21B03FB0CF761EB04
:1019000007010CFB0EF7B0EB074072EB17420CFB24
:1019100008F734BFA2EB0742B2EB074261EB174175
:101920004FEA0C444FEA910706FB07FC4FEA1C4CB8
:101930000CFB0BF7B0EBC74072EB573203FB0CF715
:1019400034BFA2EBC742B2EBC74261EB57310CFB8D
:101950000EF7B0EBC70072EB57720CFB08F734BF01
:10196000A2EBC702B2EBC70261EB5771039F4FEACC
:10197000816141EA921104EBCC044FEAD1374FEA7E
:10198000826206FB07FC42EA90124FEA80604FEA4F
:101990001C4C0CFB0BF7D21B03FB0CF761EB070194
:1019A0000CFB0EF7B0EB074072EB17420CFB08F78D
:1019B00034BFA2EB0742B2EB074261EB17414FEA9B
:1019C0008C554FEA910704EB9C2406FB07FC4FEA79
:1019D0001C4C0CFB0BF7B0EBC74072EB573203FB10
:1019E0000CF734BFA2EBC742B2EBC74261EB5731F1
:1019F0000CFB0EF7B0EBC70072EB57720CFB08F74D
:101A000034BFA2EBC702B2EBC70261EB577115EB13
:101A10004C254FEA816141EA92114FEA82624FEA16
:101A2000D13742EA901206FB07FC44F100044FEA6A
:101A300080604FEA1C4C0CFB0BF7D21B03FB0CF72E
:101A400061EB07010CFB0EF7B0EB074072EB17429E
:101A50000CFB08F734BFA2EB0742B2EB074261EB85
:101A6000174115EB1C154FEA813141EA92414FEACB
:101A7000823242EA90424FEA80304FEA0C7644F1DB
:101A8000000448EA03434EEA0B484FF0000EB2EB65
:101A9000080C71EB030724BF624639464EEB0E0E6D
:101AA0004FF0000B0018524149414BEB0B0BB2EBCE
:101AB000080C71EB03077BF1000B24BF624639462B
:101AC0004EEB0E0E4FF0000B0018524149414BEB0C
:101AD0000B0BB2EB080C71EB03077BF1000B24BF7F
:101AE000624639464EEB0E0E51EA020718BF46F029
:101AF000010616EB0E7655F1000254F1000103D5F4
:101B0000BDE88901BDE80088BDE88901BDE800485D
:101B1000B619524141EB0101A3F1010370478080E6
:101B20007F7E7D7C7B7A7978777676757473727137
:101B300071706F6E6E6D6C6C6B6A6A6968686766EF
:101B400066656464636362616160605F5F5E5E5D81
:101B50005D5C5C5B5B5A5A595958585757565655F5
:101B600055555454535352525251515050504F4F57
:101B70004F4E4E4D4D4D4C4C4C4B4B4B4A4A4A49A7
:101B800049494848484747474746464645454544EA
:101B90004444444343434342424242414141002B77
:101BA0009C4630D477002BD01CB54FEA370703B4DE
:101BB0004FF010004FF01001BAF1000F06D0BCF149
:101BC000000FDCBF40F0080040F008014FF00000BB
:101BD0000FBCBDE810400BF1010BBBF1010F08BFBA
:101BE0005FEA170722BF12F1010211F101014FF064
:101BF000004143F1000300F0004043EA0000704759
:101C0000F9D35708D0E746EA064613F1400F4FEAEA
:101C100016461FDD13F1200FDFBF16430A460021D1
:101C200020335B42BED0C3F1200746EA064602FAE3
:101C300007F74FEA164646EA0706C3F1200722FADD
:101C400003F201FA07F721FA03F14FF0000342EA29
:101C50000702A7E746EA020646EA06464FEA1646A4
:101C600046EA0106BCBF46EA0646360C4FF00003C2
:101C70004FF000024FF0000194E72DE9804C9A46A6
:101C8000934670B491E8380007C831EA400C48BF69
:101C900034EA430C03D5FFF7E6FDFFF780FFF0BC05
:101CA000BDE8008C2DE9804C9A46934670B491E8CB
:101CB000380007C810F0804F08BF13F0804F03D1E1
:101CC00000F005F8FFF76BFFF0BCBDE8008C20F0DA
:101CD0007F4780EA030023F07F4C07EB0C03A3F55A
:101CE0007C5300F00040A3F1FE0392F0000F00F0DF
:101CF000B38095F0000F00F077802DE901494FEA9D
:101D000011404FEA144621EA004800FB06FC24EA91
:101D1000064708FB06F607FB08F800FB07F718EB79
:101D200006484CEB164C4FEA124B18EB07484FEAAB
:101D300015464CEB174022EA0B4E0BFB06FC25EA3E
:101D400006470EFB06F607FB0EFE0BFB07F71EEB26
:101D5000064E4CEB164C4FF000061EEB074E4CEBBC
:101D6000174B18EB0B0840F1000018EB0E0B58EB6B
:101D7000000840F100008F1A4FF000013CBFC9433A
:101D8000661B14BFB5EB040C00213CBFC943F61B16
:101D90004FEA17444EEA8E0E27EA04454FEA1C47E5
:101DA00004FB07622CEA074C05FB07F70CFB05F662
:101DB00004FB0CFC16EB074642EB174216EB0C46F5
:101DC00042EB1C421BEB060658EB0202414146EA7D
:101DD0009E0601D5BDE80189B619524141EB0101CA
:101DE000A3F10103BDE801894FEA14454FEA114709
:101DF00024EA054621EA074C05FB07F406FB07F732
:101E00000CFB06F105FB0CFC11EB074144EB1744FE
:101E10004FEA124711EB0C4144EB1C4422EA074CF9
:101E200005FB07F206FB07F70CFB06F605FB0CFCAF
:101E300016EB074642EB174216EB0C4642EB1C45ED
:101E40006A1854F1000148BF7047B619524141EB7E
:101E50000101A3F10103704795F0000F37D04FEA5D
:101E600011424FEA144721EA024624EA074C02FBDA
:101E700007F106FB07F70CFB06F402FB0CFC14EB66
:101E8000074441EB17414FEA154714EB0C4441EB73
:101E90001C4125EA074C02FB07F506FB07F70CFB84
:101EA00006F602FB0CFC16EB074645EB174516EB56
:101EB0000C4645EB1C42121951F1000148BF704716
:101EC000B619524141EB0101A3F1010370474FEAFA
:101ED00014454FEA114724EA054621EA074C05FB61
:101EE00007F106FB07F70CFB06F24FF0000605FBB7
:101EF0000CFC12EB074241EB174112EB0C4251EB89
:101F00001C4148BF7047921841EB0101A3F1010346
:101F10007047FEE7014800F0B9B800002C0100202E
:101F2000014800F0B3B800008C01002001681823BC
:101F3000CAB2103AB2FBF3F2054B6FF30901032A60
:101F40009B5CC36500D9091D816508467047000088
:101F5000D45E000810B5014600208B698A6A4FF0F4
:101F6000C07453B1B3F5005F15D072B1012A0CD023
:101F7000022A0AD0032A09D104E01AB1012A06D0A4
:101F8000022A03D1C96AC90100D5012010BDC96A5E
:101F9000A142FAD010BD002AF7D0012AF2D0022ABD
:101FA000F3D0032AF3D010BD30B50468256825F4BA
:101FB00080252560046863608368402B036803D034
:101FC00099600068C26030BD9A600068C16030BD31
:101FD000704772B6FEE72DE9F0410446876D00F0C8
:101FE000C5FA064694F835000025022806D0802060
:101FF000606584F834500120BDE8F08120680168F4
:1020000021F0160101602068416921F080014161E1
:10201000206C08B9A06C20B12068016821F008018B
:1020200001602068016821F0010101600CE000F00E
:102030009DFA801B052807D920206065032084F8BD
:10204000350084F83450D7E720680068C007EED127
:1020500094F85C103F208840B860012084F8350077
:1020600084F834500020C7E790F83510022903D0D7
:102070008021416501207047052180F835100068F6
:10208000016821F001010160002070472DE9F8434B
:1020900004464FF00009CDF8009063484FF4165104
:1020A000A56D0068B0FBF1F72E6894F85C1008206D
:1020B00000FA01F131420FD021680A6852070BD5AE
:1020C0000A6822F004020A6094F85C108840A86054
:1020D000606D40F00100606594F85C104FF00108FD
:1020E00008FA01F0304208D021684969090604D590
:1020F000A860606D40F00200606594F85C100420F8
:102100008840304208D021680968890704D5A86052
:10211000606D40F00400606594F85C101020884009
:10212000304218D021680968090714D5A8602068D2
:102130000168490304D50068000308D5A16C07E0D5
:102140000168C90503D4016821F008010160216C10
:1021500009B12046884794F85C102020884030421E
:1021600031D021680968C9062DD5A86094F83500DA
:1021700005282068016806D0490347D50068000398
:102180001DD4616C1CE021F01601016020684169DA
:1021900021F080014161206C08B9A06C20B1206859
:1021A000016821F00801016094F85C103F2088402C
:1021B000A86084F8358084F83490216D1FE0E16BCD
:1021C00009B120468847606D00282BD0606DC0079C
:1021D00014D0052084F835002068016821F0010141
:1021E00001600098401C0090B84203D82068006845
:1021F000C007F6D184F8358084F83490E16C00296A
:1022000010D001B02046BDE8F04308470168C90579
:10221000D5D4016821F01001016084F8358084F87C
:102220003490CCE7BDE8F883140000202DE9F0419C
:10223000044600F09BF906465CB1022084F83500A4
:10224000002584F834502068016821F00101016004
:102250000DE00120BDE8F08100F088F9801B052821
:1022600005D920206065032084F83500F2E7206856
:102270000068C007F0D12268116820480140D4E905
:1022800001031843D4E90336334318436369184301
:10229000A3691843E3691843236A18430843616A32
:1022A000042903D1D4E90B131943084310602068B3
:1022B0004069666A20F0070130460E430127042872
:1022C0000CD1A06A0643E06A40B12046FFF742FE07
:1022D00020B14020606584F83570BAE72068466117
:1022E0002046FFF723FE94F85C203F219140816057
:1022F000656584F835700020ACE700003F8010F081
:102300002DE9F0410446866D90F83400002501283F
:102310000DD0012084F8340094F835700020012F8E
:1023200007D084F8340002252846BDE8F081022059
:10233000FBE7022784F8357060652046FFF734FE1E
:1023400094F85C103F208840B0602068016841F03C
:1023500016010160206C20B12068016841F008017D
:1023600001602068016841F001010160DCE70000C4
:102370002DE9F84FDFF8BCA10022012503264FF01C
:102380000F090AF1040BAAF1040E00BF0B6805FA4D
:1023900002F42340A34270D10F7907F00307012F05
:1023A00001D0022F16D187684FEA420806FA08FCCE
:1023B00027EA0C07D1F80CC00CFA08FC4CEA070C11
:1023C000C0F808C04768A7430C79C4F300149440D0
:1023D0003C4344600C79E443A4070AD0C4684FEA44
:1023E000420C06FA0CF7BC438F6807FA0CF7274338
:1023F000C7600C7904F00304022C12D1D40800EB5E
:10240000840CDCF820405707FF0E09FA07F824EA8D
:102410000804D1F8108008FA07F848EA0408CCF854
:10242000208004684FEA420C06FA0CF7BC430F798F
:1024300007F0030707FA0CF7274307604C6814F40A
:10244000403F70D03C4C276847F4804727602468A1
:1024500022F0030704F480440094384C07EB040C8A
:10246000DCF8084897074FEA177809FA08F7BC43E1
:10247000334FB84202D1002724E054E0314FB84234
:1024800001D101271EE0304FB84201D1022719E0E7
:102490002E4FB84201D1032714E02D4FB84201D18D
:1024A00004270FE02B4FB84201D105270AE02A4F3D
:1024B000B84201D1062705E0284FB84201D10727CD
:1024C00000E0082707FA08F72743CCF80878DAF87D
:1024D00000405746D1F804C09C435FEACC2C00D59D
:1024E0001C433C60DBF800405F46D1F804C09C43CD
:1024F0005FEA8C2C00D51C433C60DEF80040774638
:10250000D1F804C09C435FEA8C3C00D51C433C607E
:10251000084F083F3C68D1F804C09C435FEACC3CBC
:1025200000D51C433C60521C102AFFF42FAFBDE8BD
:10253000F88F0000083C0140443802400030014060
:10254000000002400004024000080240000C02406B
:10255000001002400014024000180240001C02401B
:102560000AB1816170470904FBE7000001488068F7
:10257000704700000800002002488168027811447A
:1025800081607047080000200B4810B5016841F4D5
:1025900000710160016841F480610160016841F4EB
:1025A00080710160032000F099F80F2000F006F818
:1025B00000F04AF8002010BD003C024030B505464E
:1025C0001C4887B00024016841F0010101600068E7
:1025D00006A900F00100009001A800F02BF900F01E
:1025E00059F91549154AB0FBF1F11548491E026029
:1025F00040F2E732C0E90324C0E90114846100F02D
:1026000043FB040012D10E4800F06CFB04000DD116
:10261000192000F035F8102D07D200222946192084
:1026200000F03CF80748056000E0012407B02046B0
:1026300030BD00004438024040420F00000001401D
:10264000EC0100200C0000200C4882B0016841F42D
:1026500080410160006800F4804000900748001F3E
:10266000016841F0805101600068002200F0805054
:1026700000900F21901E02B000F010B844380240C4
:10268000002809DB00F01F02012191404009800071
:1026900000F1E020C0F8001170470000F0B40E4BCC
:1026A0001B680C46C3F30223C3F10705042D00D9B0
:1026B0000425191D072901D2002300E0DB1E012695
:1026C00006FA05F1491E214099409E40761E1640AB
:1026D0003143F0BC01F0F3BC0CED00E0064900F022
:1026E000070208684FF6FF03184040EA0220034A39
:1026F00010430860704700000CED00E00000FA0590
:102700002DE9F0470E46050065D0DFF81481D8F8B2
:102710000000F7B200F00700B04207D288F800705E
:10272000D8F8000000F00700B04254D128683D4CB2
:10273000810712D5400703D5206840F4E05020609F
:102740002878000703D5206840F4604020602068A6
:10275000A96820F0F000084320602878C0072DD039
:10276000304968680839012812D0022813D003289C
:1027700011D00968890700292DDA216821F00301A9
:1027800001432160FFF7F2FE814641F2883A0EE0F4
:1027900009688903EFE709688901ECE7FFF7E6FEBE
:1027A000A0EB0901514502D90320BDE8F08720685C
:1027B000696800F00C00B0EB810FEFD1D8F8001081
:1027C000404601F00701B14207D90770006800F0E8
:1027D0000700B04201D00120E7E72878400705D57F
:1027E0002068E96820F4E05008432060287800075A
:1027F00006D52068296920F4604040EAC1002060C5
:1028000000F058F82168084AC1F30311515CC84030
:102810000649086006480068FFF7D0FE0020C4E7BC
:10282000003C024008380240DC5E00081400002032
:102830000C0000200F2202600C4A136803F003030F
:102840004360136803F0F0038360136803F4E053FC
:10285000C36012684FF4E05303EAD20202610448F5
:10286000006800F007000860704700000838024068
:10287000003C02400448054900680968044AC1F365
:102880008221515CC8407047140000200838024083
:10289000EC5E00080448054900680968044AC1F371
:1028A0004231515CC8407047140000200838024093
:1028B000EC5E0008154810B5006810F00C021448D2
:1028C00013D01449042A0FD0082A0ED10F4C241F0C
:1028D0002268236802F03F025B0207D52068C0F33C
:1028E0008810A0FB010106E0084610BD2168C1F375
:1028F0008811A1FB00010023FDF76CFD2168C1F3E5
:102900000141491C4900B0FBF1F010BD08380240FC
:102910000024F40040787D012DE9F84F04006ED0CA
:102920002078DFF84C93C007A9F104054AD009F1DB
:1029300004000168C1F38101012908D00068C0F3D7
:10294000810002280AD1D9F80000400206D5286883
:10295000800337D560680028E1D033E06068B0F5C7
:10296000803F10D0B0F5A02F286810D020F4803020
:102970002860286820F4802028606068A8B1FFF7EC
:10298000F5FD06460DE0286840F48030F4E740F499
:1029900080202860F7E700BFFFF7E8FD801B642870
:1029A00073D828688003F7D50CE0FFF7DFFD0646F3
:1029B00005E000BFFFF7DAFD801B6428F0D8286827
:1029C0008003F7D42078DFF8AC8280074FF0000A4C
:1029D0003ED5A748001D016811F00C0F08D0006813
:1029E000C0F3810002280BD1D9F80000400207D4BF
:1029F0002868800716D5E068012800D112E033E18D
:102A0000E068B8B10120C8F80000FFF7AFFD064646
:102A100005E000BFFFF7AAFD801B0228C0D8286888
:102A20008007F7D52868216920F0F80040EAC10046
:102A300028600DE0C8F800A0FFF798FD064604E006
:102A4000FFF794FD801B02281FD828688007F7D461
:102A50002078000722D5864F87486169703771B1A9
:102A600001210160FFF782FD064604E0FFF77EFDCD
:102A7000801B022809D838688007F7D50EE0C0F817
:102A800000A0FFF773FD064605E082E0FFF76EFD4C
:102A9000801B02287DD838688007F7D4207840074B
:102AA00068D5DFF8CCB100270BF13C0BDBF8000058
:102AB000C0000BD4DBF8001041F08051CBF80010BF
:102AC000DBF80000012700F0805000906B4E30686A
:102AD000C00510D4306840F480703060FFF746FDC8
:102AE000009005E0FFF742FD0099401A022850D8F7
:102AF0003068C005F6D55E4EA0686C3601280FD050
:102B00000528306810D020F001003060306820F0D7
:102B100004003060A068B8B1FFF728FD00900FE016
:102B2000306840F00100F4E740F004003060F7E75F
:102B3000FFF71CFD0099411A41F28830814266D8A6
:102B400030688007F4D50EE0FFF710FD009007E035
:102B5000FFF70CFD0099411A41F28830814256D8A6
:102B600030688007F4D42FB1DBF8001021F08051D9
:102B7000CBF80010A069C8B33D49091D0968C1F32D
:102B8000810102294AD00228504607D0C8F86000C7
:102B900000E03CE0FFF7EAFC04463BE04746C8F8AB
:102BA0006000FFF7E3FC064605E000BFFFF7DEFC30
:102BB000801B02282BD828688001F7D4D4E90701AC
:102BC0000843A16A2E4A490802EB0141626A41EAC0
:102BD0008211084394F82C1040EA0161C9F80010F2
:102BE00001203866FFF7C2FC044606E03EE000BF65
:102BF000FFF7BCFC001B022809D828688001F7D524
:102C000034E000BFFFF7B2FC001B022802D903200A
:102C1000BDE8F88F28688001F4D427E00128F7D0B8
:102C2000D9F80000E26900F4800191421CD1226AC7
:102C300000F03F01914217D147F6C071626A01402E
:102C4000B1EB821F10D1A26A4FF0FF3300F4403184
:102C500003EB5202B1EB024F06D194F82C1000F0B6
:102C60007060B0EB016F01D00120D1E70020CFE709
:102C70000438024000004742800E47420070004086
:102C80000000FFFF7047704710B5040003D094F8B0
:102C90003D0010B107E0012010BD002084F83C0089
:102CA000204600F01EF8022084F83D00211D206817
:102CB00000F0CEFE012084F8460084F83E0084F83F
:102CC0003F0084F8400084F8410084F8420084F812
:102CD000430084F8440084F8450084F83D00002057
:102CE00010BD704790F83D10012901D001207047B8
:102CF000022180F83D100168CA6842F00102CA60F2
:102D000000681149884214D0B0F1804F11D00F49AA
:102D100088420ED00E4988420BD00E49884208D016
:102D20000D49884205D00D49884202D00C4988429D
:102D300004D1816801F00701062903D0016841F040
:102D400001010160002070470000014000040040C4
:102D500000080040000C0040000401400040014019
:102D60000018004070472DE9F04104460068C6682D
:102D700005694FF00007A90713D5B10711D5F91E52
:102D8000016101202077206880698007204602D0F9
:102D9000FFF7E8FF04E000F07EF8204600F07CF842
:102DA0002777680716D5700714D521686FF00400DF
:102DB0000861022020772068806910F4407F204657
:102DC00002D0FFF7CFFF04E000F065F8204600F0E6
:102DD00063F82777280715D5300713D521686FF0DA
:102DE00008000861042020772068C0698007204619
:102DF00002D0FFF7B7FF04E000F04DF8204600F0E6
:102E00004BF82777E80616D5F00614D521686FF041
:102E100010000861082020772068C06910F4407F06
:102E2000204602D0FFF79EFF04E000F034F8204671
:102E300000F032F82777E80708D0F00706D02168BD
:102E40006FF001000861204600F028F8280608D538
:102E5000300606D521686FF0800008612046FFF734
:102E600011FF680608D5700606D521686FF040008E
:102E70000861204600F01CF8A8060AD5B00608D55F
:102E800021686FF0200008612046BDE8F041FFF79F
:102E9000FABEBDE8F0817047704700000068034942
:102EA000884201D1FFF768BB704700000000014075
:102EB0007047704710B504460068406994F84110A7
:102EC000C0F3C010212911D180B12068143050E81E
:102ED000001F21F0800140E80012002AF5D1A06B0C
:102EE00008B1FFF778F8204600F0EAFE2068406954
:102EF00094F84210C0F38010222911D180B12068CB
:102F0000143050E8001F21F0400140E80012002A70
:102F1000F5D1E06B08B1FFF75EF8204600F0A9FE9E
:102F2000002010BD704710F8411F407808437047DB
:102F3000F8B5016804460868CA684B6910F00F0FBD
:102F40004FF0000559D003F0010602F490773743A3
:102F500065D0C10705D0D10503D5616C41F00101F1
:102F60006164410705D5D90703D0616C41F00201C6
:102F70006164810705D5D90703D0616C41F0040174
:102F80006164010707D502F02001314303D0616C71
:102F900041F008016164616C00293AD0800604D5D3
:102FA000900602D5204600F099FE20684069616CC9
:102FB000C0F38010090700D460B3204600F059FE2A
:102FC00020684069400621D52068143050E8001F71
:102FD00021F0400140E80012002AF5D1E06BA8B1D1
:102FE0006E490165E06BFFF73FF8002811D0E06BF8
:102FF000016D01B0BDE8F040084783060FD5930688
:103000000DD52046BDE8F84000F068BE2046FFF729
:1030100089FFF8BD2046FFF785FF6564F8BD266B84
:103020002023012E7DD1C6067BD5D60679D508682A
:103030004868009048694FF00206400641D5E16BB0
:10304000086840680004000CE8D0A28D8242E5D9EF
:10305000E085C869B0F5807F2DD020680C3050E83D
:10306000001F21F4807140E80012002AF5D1206889
:10307000143050E8001F21F0010140E80012002A3E
:10308000F5D12068143050E8001F21F0400140E8DD
:103090000012002AF5D184F84230256320680C30F4
:1030A00050E8001F21F0100140E80012002AF5D17D
:1030B000E06BFEF790FF6663A08DE18D401A81B250
:1030C0002AE0A08DE18D401A81B2E08D0028A5D0C4
:1030D0000029A3D022680C3252E8000F20F490702F
:1030E00042E80007002FF5D12068143050E8002F87
:1030F00022F0010240E80027002FF5D184F8423089
:10310000256320680C3050E8002F22F0100240E8C0
:103110000023002BF5D166632046FFF7CAFEF8BDF9
:10312000FFE705062BD5150629D594F8410021287F
:10313000F5D1A068B0F5805F01D12069B0B1206AF7
:10314000411C2162216800784860E08C401E000428
:10315000000CE084E3D12068C16821F08001C160E7
:103160002068C16841F04001C160D8E7206A00884A
:10317000C0F308004860206A801C2062E5E7400632
:10318000CDD55006CBD5CA68204622F04002CA6091
:1031900084F8413000F06CF9C1E70000293B0008D9
:1031A00070B5040004D094F84100002510B106E089
:1031B000012070BD84F84050204600F023F8242000
:1031C00084F841002068C16821F40051C1602046A4
:1031D00000F0E6FD2068016921F49041016120685A
:1031E000416921F02A0141612068C16841F4005120
:1031F000C1606564202084F8410084F84200656362
:10320000002070BD2DE9F04186B0064614216846C5
:10321000FDF7D6F94248DFF804C137684049103855
:10322000022203230725002467454FD10F6847F486
:1032300000370F60096801F400310591016841F021
:10324000010101600068694600F0010005900C2052
:103250008DE81500CDE903353248FFF789F8334D85
:1032600031484FF000672860C5E901744FF4806869
:10327000C5E903486C61AC61EC612C6228466C6264
:10328000FEF7D4FF08B1FEF7A4FEF563AE63274D49
:10329000254860351830E5E802074020A5E811010F
:1032A000224845F814496030AC61EC612C626C62D4
:1032B000FEF7BCFF08B1FEF78CFEB56300220521C6
:1032C0002620AE63FFF7EAF9262022E0184EB74227
:1032D00021D10E6846F480260E60096801F4802131
:1032E0000591016841F0020101600068694600F043
:1032F000020005904FF440608DE81500CDE90335DC
:103300000C48FFF735F8002205212720FFF7C6F902
:103310002720FFF7B5F906B0BDE8F0810044004072
:103320004038024000000240886002402C0100202A
:10333000004800400004024090F84230202B01D0A9
:103340000220704721B11AB10023036300F0AEBD23
:1033500001207047704770472DE9F843044690F804
:103360004100984616460D46202802D00220BDE8AE
:10337000F88385B17EB100206064212084F841008B
:10338000FFF7F4F8A6848146E684A0682027B0F50C
:10339000805F02D003E00120E9E7206910B12E46EA
:1033A00000250EE000260CE08021204600F0C6FD3E
:1033B000A8B9C6B116F8010B21684860E08C401E20
:1033C000E084E08C4B464FF00002CDF800800028EE
:1033D000EAD14FF04001204600F0B0FD40B184F842
:1033E00041700320C3E735F8020BC0F30800E3E7A0
:1033F00084F841700020BAE770B5044690F84100A7
:10340000202801D0022070BD49B342B32162A284BA
:10341000E28400206064212384F84130A56B114BC5
:10342000EB63A56B104B2B64A56B104BEB64A36B8C
:103430001865256813462A1DA06BFEF761FF2168F9
:103440006FF0400008602068143050E8001F41F021
:10345000800140E80012002AF5D1002070BD012053
:1034600070BD0000273C0008693C0008393B00089B
:103470001CB5002001900C480C4A0168914212D101
:1034800001A900910023C06F1A46194602F080FA84
:103490000198002807D006494FF080500860BFF31C
:1034A0004F8FBFF36F8F1CBD084B00209C00002086
:1034B00004ED00E07047FEE70D4808B5016841F4EF
:1034C000001101600068002200F400100090052146
:1034D0001020FFF7E3F81020FFF7D2F800220521B3
:1034E0001120FFF7DBF8BDE808401120FFF7C8B84E
:1034F000303802401CB500F0EFF8084A00210848B7
:1035000000F062FE0749002348602020CDE9000159
:10351000C20005A1084802F073F91CBDB05E0008A6
:10352000B1380008000000204D794D6F646275735A
:103530005461736B000000002D37000870B586B031
:1035400014216846FDF73CF81A480025016841F04F
:1035500080010160016801F080010591016841F07E
:1035600001010160016801F001010591016841F06C
:1035700002010160016801F002010591016841F05A
:103580004001016000680C4E00F040004FF4807470
:103590000590002221463046FEF7E2FF0120CDE9EA
:1035A00000400220CDE9025069463046FEF7E0FEB9
:1035B00006B070BD30380240001802400C4810B50B
:1035C0000A4901604FF416414160002181600C22DC
:1035D000C160C0E904128161C161FFF7E1FD00280B
:1035E00003D0BDE81040FEF7F4BC10BD004400401D
:1035F0009C0000200C4810B50A4901604FF4E131ED
:103600004160002181600C22C160C0E90412816127
:10361000C161FFF7C5FD002803D0BDE81040FEF7EB
:10362000D8BC10BD00480040E4000020FEE70000C8
:103630001CB5044600221521032001F063FE6067DB
:10364000202004F17C01CDE90001C200234612A133
:10365000174802F0D5F8B4F85A004FF47A7148438D
:10366000B0FBF1F113480090D4F88430002212A08E
:103670005C3402F069FBA06200220C21032001F0FF
:1036800041FEE06110480090002205210FA0636A0E
:1036900002F05AFB60621CBD537461727454617312
:1036A0006B4D6F646275734D6173746572000000D9
:1036B000B93800085D5100087854696D6572546925
:1036C0006D656F75740000002551000854696D65C3
:1036D00072543335000000000A4810B508490160F3
:1036E0004FF47A71A0F85A10074941608915018199
:1036F000FFF79EFFBDE8104004A000F0ABBD000046
:103700009C000020084B002000180240525334381F
:103710003520496E697420200D0A00001FB5002372
:10372000806F1A4601A901F085FE1FBD042060F3D9
:103730000704032060F30F24052060F31F440120D9
:1037400060F30F054FF4487733462A462146054873
:10375000FFF7E4FF04A000F07DFD384601F0FCFB1C
:10376000F2E70000084B00206D6F646275732074EF
:103770007820200D0A000000FEE700002DE9F0414E
:103780000446002094F85D5005B1801E11F0FF053D
:103790006FF0080601D0F72D01D9304600E010B1D6
:1037A0006081BDE8F08123652573C1F30727080C0C
:1037B0006773010AA17392B2E073160A062100250D
:1037C000D0B2052F16D008DC012F11D0022F0FD058
:1037D000032F0DD0042F62D10AE0062F13D04FF033
:1037E000070C04F10C010F2F13D0102F57D134E028
:1037F00026740CE0188800B1FF20207484F8115062
:1038000084F84C104BE01888000A20741878607413
:10381000F6E713095B061B0E120701D05B1CDBB237
:1038200026746074A37484F84CC0002012E0C207B0
:10383000226D20F0010601D0925D01E0925B120A38
:1038400094F84C60725494F84C20521C401C84F83C
:103850004C2080B29842EAD321E026746074500074
:10386000A07484F84CC0002017E0236D94F84C60DD
:1038700033F810301B0A735494F84C305B1CDBB2E5
:1038800084F84C30266D16F810605E5494F84C3075
:103890005B1C401C84F84C3080B28242E5D8204644
:1038A00001F08CF9012084F85D006581002078E743
:1038B000012000F04DFCFBE71FB504464FF0FF3739
:1038C00000253A4601A9A06F01F0C4FE0DF1040CD9
:1038D00020469CE80E00FFF751FF3946012001F019
:1038E000C1F96581FF280CD0606F01F002FA84F8FD
:1038F0005C00002204F15E01606F01F0ABFE002667
:1039000013E084F85D50FF206081B4F85800401C3B
:10391000A4F8580012A000F09DFCD2E7A01990F87E
:103920005E1014A000F096FC761C94F87200B04271
:10393000F4DC11A000F08EFC009500231A46032150
:10394000D4F8840002F04AFA204601F015FC10F089
:10395000FF0002D084F85D50B3E76081FAE7000011
:103960006D6F64627573207278206661696C2020C7
:103970000D0A0000257820006D6F64627573207257
:1039800078200D0A0000000010B54FF0E02000691B
:1039900002F080F8012803D0BDE8104001F09CBC83
:1039A00010BD000030B593B030216846FCF708FE2A
:1039B00014210CA8FCF704FE1C480024016841F007
:1039C00080510160006800F0805011901848016833
:1039D00041F4804101600068022500F480401190AC
:1039E0000120039010200490009506950820CDE951
:1039F00007404820CDE9090504200B906846FEF7F2
:103A00008BFF08B172B6FEE70F20CDE90C054FF42D
:103A10008050CDE90E4002210CA81094FEF770FEF4
:103A2000002801D072B6FEE713B030BD4038024026
:103A3000007000400248016841F470010160704765
:103A400088ED00E00148FFF78EB90000EC0100208E
:103A5000F0B50268294C2A4D2A4E2B4F2B4B4FF0C4
:103A6000804CA04209D0604507D0A84205D0B042A2
:103A700003D0B84201D0984204D122F0700E4A68B7
:103A800042EA0E02A0421BD0604519D0A84217D0CE
:103A9000B04215D0B84213D0984211D01C4DA84264
:103AA0000ED01C4DA8420BD01B4DA84208D01B4D78
:103AB000A84205D01A4DA84202D01A4DA84203D1FF
:103AC00022F44075CA682A434D6922F080022A43D5
:103AD00002608A68C2620A688262A04201D098428B
:103AE00001D109690163012141610169C90703D05D
:103AF000016921F001010161F0BD000000000140F9
:103B00000004004000080040000C00400004014098
:103B100000400140004401400048014000180040BE
:103B2000001C00400020004010B5806B0021C185C2
:103B3000C184FFF7F7F910BD70B5846B2068406948
:103B400094F84110C0F3C0100025212904D118B108
:103B5000E584204600F0B4F82068406994F84210EB
:103B6000C0F38010222904D118B1E585204600F069
:103B700080F8606C40F0100060642046FFF7D2F9D6
:103B800070BD10B50146806B096809684FF00002EE
:103B9000C9052ED4C28501680C3151E8003F23F4D9
:103BA000807341E80034002CF5D10168143151E8EC
:103BB000003F23F0010341E80034002CF5D10168F7
:103BC000143151E8003F23F0400341E80034002C59
:103BD000F5D1202180F84210016B012909D101683B
:103BE0000C3151E8003F23F0100341E80034002C71
:103BF000F5D14263016B012902D0FFF7ABFB10BD89
:103C0000818DFFF756F910BD10B5806B012141631E
:103C1000016B012902D0FFF79EFB10BD818D490881
:103C2000FFF747F910BD10B50146806B09680968B8
:103C3000C90516D40021C1840168143151E8002F50
:103C400022F0800241E80023002BF5D101680C31FD
:103C500051E8002F42F0400241E80023002BF5D14B
:103C600010BDFFF705FC10BD10B5806BFFF722FCFF
:103C700010BD01680C3151E8002F22F4907241E828
:103C80000023002BF5D10168143151E8002F22F0F8
:103C9000010241E80023002BF5D1016B012909D174
:103CA00001680C3151E8002F22F0100241E8002396
:103CB000002BF5D1202180F84210002101637047CC
:103CC00001680C3151E8002F22F0C00241E80023C6
:103CD000002BF5D1202180F84110704708B590F8ED
:103CE0004210222901D0022008BD82684FF480537F
:103CF0009A4201D1016921B1816A9A421BD04AB12D
:103D00000AE00268816A5268C2F308020A80816A86
:103D1000891C08E0026972B10268526802F07F02F1
:103D20000A70816A491C8162C18D491E0904090C0F
:103D3000C18503D01BE002685268F1E70168CA68D8
:103D400022F02002CA600168CA6822F48072CA6048
:103D500001684A6922F001024A61202180F842107C
:103D600000214163026B012A03D0FFF7F3FA002020
:103D700008BD016301680C3151E8002F22F01002E8
:103D800041E80023002BF5D101680A68D20602D56C
:103D90000A6849680091818DFFF78BF8E7E700001A
:103DA00070B5044600680169E26821F4405111438E
:103DB00001612169A068E269084361691143084310
:103DC0002168CA6849F20C639A430243CA602068BA
:103DD0004169A26921F44071114341613149206870
:103DE000884202D03049884202D1FEF753FD01E0FB
:103DF000FEF740FDE2690023192164253226B2F561
:103E0000004F626828D0A0FB0101930F9200FCF7DD
:103E1000E1FA0146B0FBF5F06FF01802504301EBF8
:103E2000800006EB0010B0FBF5F000F0F002B1FBF3
:103E3000F5F002EB0012B1FBF5F06FF018035843F8
:103E400001EB800006EB0010B0FBF5F000F00F0076
:103E500021681044886070BDA0FB010192185B418D
:103E6000FCF7B8FA0146B0FBF5F00201B1FBF5F042
:103E70006FF01803584301EB800006EBC000B0FB65
:103E8000F5F000F0F80002EB4002B1FBF5F058430A
:103E900001EB800006EBC000B0FBF5F000F007007E
:103EA000D6E70000001001400014014038B58162DF
:103EB00004468285002013466064222284F8422052
:103EC000E56B1B4AEA63E56B1A4A2A64E56B1A4AFA
:103ED000EA64E26B10650A462168E06B091DFEF793
:103EE0000FFA2068016840680090206948B1206896
:103EF0000C3050E8001F41F4807140E80012002AA5
:103F0000F5D12068143050E8001F41F0010140E86D
:103F10000012002AF5D12068143050E8001F41F04B
:103F2000400140E80012002AF5D1002038BD000011
:103F3000833B0008093C0008393B00082DE9F843A1
:103F4000984617460D460446089E24E0701C22D071
:103F5000FEF70CFBA0EB0800B0421AD8CEB12068E7
:103F6000C168490717D5802D15D0402D13D00168A1
:103F7000C94309070FD40168002540680090204616
:103F8000FFF777FE0820606484F840500120BDE808
:103F9000F8830320FBE72068006835EA000004D0BE
:103FA0000020B842D2D00020F1E70120F9E700005C
:103FB00010B5044800F008F8BDE810400148FEF7CD
:103FC000B7BF00009C000020F8B500680068C0433F
:103FD000C00633D4204C2148216881422ED100688C
:103FE00000260168406800901C48FEF763FF1C4DE6
:103FF0002868406804F15E01C0F1140084F8720082
:104000000023184A0F46606F01F0C4FA2968142093
:1040100048602868016841F00101016001F04EFD2F
:10402000024600960F4B0721D4F8800001F0D6FE1F
:1040300094F8722039460948FFF77EF9094800686C
:10404000002807D008494FF080500860BFF34F8F19
:10405000BFF36F8FF8BD0000084B00209C000020CC
:104060002C0100209800002004ED00E003480068C7
:10407000C16841F01001C160704700009C00002041
:104080000148FEF755BF0000E4000020FEE703B43E
:1040900001984100009850EAC12018BF04204A0D41
:1040A00018BF40F0010040F2FF72B2EB515F08BF51
:1040B00040F00200012808BF052002B07047090740
:1040C000090E002804DB00F1E02080F8001470479E
:1040D00000F00F0000F1E02080F8141D7047303828
:1040E0000A2801D2012070470020704770B54FF6B2
:1040F000FF7200234AF201050EE0C45C6240012415
:1041000012F0010F4FEA520200D06A40641CE4B280
:10411000082CF5D95B1CDBB28B42EED3100A40EAC7
:10412000022080B270BDFEF72FFAFFF73BFCFFF7CD
:1041300005FAFFF7C1F9FFF741FAFFF75BFAFFF75E
:1041400095FF00F013F8FFF7D5F900F021F8FEE72E
:1041500010B5EFF3058111B16FF0050403E0002401
:1041600008B100F0F9FE204610BD0000EFF3058015
:1041700010B16FF0050070470448016811B14FF0AD
:10418000FF30704701210160002070476800002067
:1041900010B5EFF3058010B16FF0050010BD0848B1
:1041A0000168012902D04FF0FF3010BD054A0021FF
:1041B00082F8141D0221016000F036FF002010BDBE
:1041C000680000200BE000E02DE9FF414FEA010309
:1041D0004FF00005EFF30581039549BB40B38027FD
:1041E000182100244AB3166806B1344696691EB1F8
:1041F0003146761E382E02D21679F60703D00020FB
:1042000004B0BDE8F081566906B1B708D2F808C01D
:10421000BCF1000F0DD0D5685C2D18D312693AB1EE
:1042200036B18DE806103A46214601F016FB0390A0
:104230000DE0D6685EB912694AB903AACDE9001249
:10424000BAB2214601F0DCFA012800D003950398A8
:10425000D6E700000FB430B591B0EFF3058068B138
:10426000502080F31188BFF34F8FBFF36F8F0DE0A5
:104270002560BFF34F8FBFF36F8F02E0124C4FF0FA
:1042800080551248FEF74FFE2128F1D015AA684646
:104290001499FCF717F9002809DD6846FCF724F9A2
:1042A00082B24FF4FA7369460848FFF755F8EFF306
:1042B0000580002803D04FF0000080F3118811B072
:1042C00030BC5DF814FB000004ED00E0E4000020C9
:1042D0002DE9F041134C0F460546E6682068001DA5
:1042E00000F0F4FC681C07D137B12168BDE8F0414B
:1042F0000D48091D00F04CBD20683544B5424560AD
:10430000216805D2A06BBDE8F041091D00F028BD71
:10431000606B091D00F024FDA06A854200D2A562F1
:10432000BDE8F08118000020240700202DE9F041AD
:10433000054600F039FD2D4CA068401CA0602068A7
:104340002B4F10B1606930B32BE02560A0680128C5
:1043500027D1002606EB860007EB800000F0F2FC78
:10436000761C382EF6D3234800F0ECFC214814309C
:1043700000F0E8FC1F48283000F0E4FC1D483C3009
:1043800000F0E0FC1B48503000F0DCFC1948606392
:104390001430A06305E02068E96AC06A884200D84A
:1043A0002560606A401C60626864E86A216988422E
:1043B00000D9206100EB800007EB8000291D00F090
:1043C000E7FC00F011FD606900280CD02068E96A64
:1043D000C06A884207D208494FF080500860BFF396
:1043E0004F8FBFF36F8FBDE8F081000018000020F1
:1043F00074020020D406002004ED00E038B500F07F
:10440000D3FC104C2068C8B90F4800F09BFC0E4844
:10441000143000F097FC0C48E060143020610A4B27
:104420000020F03B009003F1500210210A2000F020
:104430008AFF206010B105A100F058FDBDE83840AA
:1044400000F0D2BC5400002028080020546D7251A6
:104450000000000030B4026C0B46002A0BD0C1688B
:104460001144C1608468A14201D30168C16030BCBD
:104470001846FCF758B830BC70472DE9F041856B01
:10448000174604460026026C82B1C7B1E068FCF70B
:104490004AF8E168206C091AE1602268914202D270
:1044A000A168081AE060022F16D017E02068A8B9AA
:1044B000A06801F06FFB06460020A0600EE0606877
:1044C000FCF731F8216C606808446060A16888429C
:1044D00004D32068606001E005B16D1E6D1CA5630A
:1044E0003046BDE8F08110B5044690F8590058B147
:1044F00001280CD002280FD0502080F31188BFF380
:104500004F8FBFF36F8FFEE7206B00F081FC2046DA
:10451000BDE8104000F07CBC10BD000010484FF416
:104520007051420706D0C01D0D4920F00700411A06
:10453000C1F570510B4A00230144C2E90003083958
:10454000183A21F0070111604B600B600B1AC0E9AB
:10455000001393604FF000405360506170470000BB
:10456000080F002084000020144E154CA6F29C4732
:104570004FF08058DFF84C9012E000BF00F014FCC0
:10458000F068C568281D00F0A1FBA068401EA0606F
:104590006068401E606000F027FC2846FFF7A3FF1C
:1045A00060680028EAD138680128F9D9C9F8008084
:1045B000BFF34F8FBFF36F8FF2E7000010070020AB
:1045C0001800002004ED00E070B51D46049C51B1B8
:1045D000C4F80020C4E90F010121204600F0E6FEE6
:1045E00084F84C5070BD2460F4E700002DE9F05FC2
:1045F0008846DDE90B941546834691009A460A9E4B
:10460000A522206BFBF7D4FF6FF00301206B01EBB9
:104610008501084420F00707780707D0502080F371
:104620001188BFF34F8FBFF36F8FFEE70025B8F1FE
:10463000000F0FD05FF00000221818F8001082F869
:10464000341018F8001011B1401C1028F4D384F86D
:10465000435001E084F83450382E00D33726E66208
:10466000C4E91365201D00F078FB04F1180000F088
:1046700074FB2461C6F138006462A061656584F84A
:10468000585052465946384600F082FA2060B9F137
:10469000000F01D0C9F80040BDE8F09F2DE9F047B8
:1046A0001E46DDE9089417460D00804615D0002C03
:1046B00011D0FFF7A3FE04F11801C4F8008081E8CF
:1046C0006002201D00F049FB002F04D014F8280FD1
:1046D00040F004002070BDE8F087502080F311887E
:1046E000BFF34F8FBFF36F8FFEE7000030B5114966
:1046F00000E011460A688242FBD34B685C18844292
:1047000003D1406818444860084643681C18944226
:1047100009D1084C183C2468A24209D052681A44B6
:1047200042600A6812680260814200D0086030BDB1
:104730000460F9E78400002070B5002441600B4D4F
:104740000061914206D8D11A8269914206D2011DB8
:10475000286907E09A4203D2994201D3012403E079
:10476000011DE86800F0FCFA204670BD54000020EE
:1047700010B5044600F018FBA06B28B15FF00004F0
:1047800000F032FB204610BD0124F9E730B589B0B6
:104790003C4D6EE00498002806DADDE90601059A32
:1047A00090470498002864DB069C606910B1201DC6
:1047B00000F08CFA03A800F0D7F8024604980A2803
:1047C00057D2DFE800F00505052D334A05052D33E6
:1047D00094F8280040F0010084F828000599A069A9
:1047E000059B01442046FFF7A7FF68B3216A2046D6
:1047F000884794F8280040073BD500200090059892
:10480000A169002342181946204601F0E7FAD8B9F9
:10481000502080F31188BFF34F8FBFF36F8FFEE7F7
:1048200014F8280F20F00100207022E094F82800EE
:1048300040F0010084F828000598A06128B1811893
:1048400013462046FFF778FF13E0502080F31188CD
:10485000BFF34F8FBFF36F8FFEE794F828008107F7
:1048600003D4204600F0D4FA03E020F0010084F8DD
:104870002800002204A9286800F0ECFE002889D155
:1048800009B030BD540000202DE9FC410F4605461B
:1048900000F00EFC01A800F067F80446019818B17A
:1048A00001F0F0F9BDE8FC81254EAFB13069006838
:1048B000D0B30027291B3A46306800F02BFB01F0EB
:1048C000E1F90028EED11F494FF080500860BFF396
:1048D0004F8FBFF36F8FE5E7A542EBD801F0D2F918
:1048E000F0682746C068C468201D00F0EFF994F80E
:1048F0002800410719D5A0692B4641193A462046A0
:10490000FFF71AFFA8B100200346014600902A468F
:10491000204601F063FA60B9502080F31188BFF39C
:104920004F8FBFF36F8FFEE707E020F0010084F8A0
:104930002800216A20468847B4E70127BAE700002B
:104940005400002004ED00E00648416B096829B1DD
:10495000416BC968C9684968816270474FF0FF318F
:10496000FAE700001800002070B5054601F0A0F835
:10497000064E0446B068844203D200F009F80120D4
:1049800000E0002028602046B46070BD5400002084
:10499000F8B5194D20E0C068C4680668201D00F015
:1049A00095F9216A2046884794F82800400713D5D6
:1049B000A0693044B04206D924616060211DE868D6
:1049C00000F0CEF908E00020034601460090324690
:1049D000204601F003FA38B1E86801680029DAD10D
:1049E0002969C5E90310F8BD502080F31188BFF391
:1049F0004F8FBFF36F8FFEE75400002008484068D8
:104A0000401C4FF0500080F3118804D0BFF34F8F4B
:104A1000BFF36F8FFEE7BFF34F8FBFF36F8FFEE7DC
:104A20008C000020074CE068016841B1C06800219B
:104A3000D0F80000FFF728FFFFF7A8FEF3E70121F9
:104A40000020F7E7540000202DE9F041044600F073
:104A5000ABF994F9455004F1240609E0606A48B1C5
:104A6000304601F0D7F808B100F0A4FA6D1E6DB21F
:104A7000002DF3DC4FF0FF3684F8456000F0B4F908
:104A800000F092F994F9445004F1100709E020690C
:104A900048B1384601F0BEF808B100F08BFA6D1E3F
:104AA0006DB2002DF3DC84F84460BDE8F04100F005
:104AB0009BB900002DE9F0410546002700F0F8FA07
:104AC000324E306808B9FFF729FD706905424ED1B2
:104AD000C5B3083568070ED005F00700C0F108001F
:104AE0000544680707D0502080F31188BFF34F8F2B
:104AF000BFF36F8FFEE72DB37068854237D8234828
:104B0000183001460C6801E020460C466168A94255
:104B100002D221680029F7D131688C4227D007687A
:104B20002168016060680837411B10290FD960199E
:104B3000420708D0502080F31188BFF34F8FBFF396
:104B40006F8FFEE713E041606560FFF7CFFD61689E
:104B50007068401A7060B268904200D2B0607069AC
:104B600001430020C4E90001F068401CF06001F03E
:104B700089F8780707D0502080F31188BFF34F8F52
:104B8000BFF36F8FFEE73846BDE8F0816C00002070
:104B900010B5031F4FF080741C601B1F21F0010132
:104BA0001960191F044B0B6014390A60091F6FF05C
:104BB000020244380A6010BDFD49000838B50446B9
:104BC00090F84C100C300546FFF790FA94F84C2002
:104BD000010A515594F84C10491CC9B284F84C1084
:104BE000485594F84C00401C84F84C00606818B19B
:104BF00021890122FDF7B4FC94F84C202946206855
:104C0000FEF7FAFB4FF0FF31012000F02BF860684F
:104C100090B113484FF08051226812681268520612
:104C200005D40160BFF34F8FBFF36F8FF4E7218985
:104C300000226068FDF794FC606F00214C3400F0A6
:104C4000B5FB0025257000F033FF024600950023D8
:104C50000221A06B01F0C2F86089401C608138BD60
:104C600004ED00E070B50C46064600F09DF8154DC9
:104C70002868406D80B92968012081F858005CB12E
:104C800001212046FFF724FB0F494FF080500860B8
:104C9000BFF34F8FBFF36F8F00F0A6F800F084F8DA
:104CA0002868446D002034B116B12968486502E0D7
:104CB0002A68611E5165296881F8580000F094F84F
:104CC000204670BD1800002004ED00E0D0E901325C
:104CD00001699A60D0E901235A604A68824201D191
:104CE00082684A60002202610868401E0860086805
:104CF000704710B5040006D000F056F8A46B00F021
:104D000073F8204610BD502080F31188BFF34F8FF9
:104D1000BFF36F8FFEE70000034B036003F15C00FD
:104D2000086080201060704750080020044B03602A
:104D300003F15C0008604FF4807010607047000061
:104D4000AC0A002000F108014FF0FF32C0E9011267
:104D5000C16001610021016070470021016170475D
:104D600030B50B685A1C02D000F1080202E002695B
:104D700004E02246546825689D42FAD953684B6086
:104D800099608A60516008610168491C016030BD0A
:104D900042684A6093688B609368596091600861CB
:104DA0000168491C01607047502080F31188BFF3EF
:104DB0004F8FBFF36F8F0A494868401C4860012835
:104DC0000CD10848006810F0FF0F07D0502080F386
:104DD0001188BFF34F8FBFF36F8FFEE7704700005E
:104DE0008C00002004ED00E00849486828B1401E0E
:104DF000486001D180F311887047502080F31188FA
:104E0000BFF34F8FBFF36F8FFEE700008C000020D1
:104E100070B500282AD0164DA0F1080460686969B1
:104E2000084207D1502080F31188BFF34F8FBFF3A2
:104E30006F8FFEE722683AB1502080F31188BFF3EC
:104E40004F8FBFF36F8FFEE78843606000F030F94B
:104E500060686968084468602046FFF747FC286975
:104E6000401C2861BDE8704000F00CBF70BD000020
:104E70006C0000204FF0E0200021016181610549B4
:104E80004FF47A720968B1FBF2F1491E41610721C2
:104E9000016170471400002010B5FBF777FA114943
:104EA00010280ED300F1E02090F8F0030A78904229
:104EB00007D2502080F31188BFF34F8FBFF36F8F5D
:104EC000FEE709480068896800F4E060884207D975
:104ED000502080F31188BFF34F8FBFF36F8FFEE731
:104EE00010BD00008C0000200CED00E010B5084B58
:104EF000002200BF53F832401CB1521C082AF9D3DB
:104F000010BD43F8321003EBC201486010BD000031
:104F10003402002070B515460E460446FFF744FFE4
:104F200094F944100020491C01D184F8440094F9FC
:104F30004510491C01D184F84500FFF755FFA06BCF
:104F400028B92A46314604F1240000F051F82046E1
:104F5000BDE87040FFF778BD10B5020014D00F48CF
:104F6000006B38B1502080F31188BFF34F8FBFF32F
:104F70006F8FFEE700F09CF800211046FFF7A8F9BC
:104F800000F080FE002807D105494FF080500860EE
:104F9000BFF34F8FBFF36F8F10BD000018000020CC
:104FA00004ED00E002490A6A0260C9684160704786
:104FB0001800002001490120C86170471800002036
:104FC00010B50C4650B1094909681831FFF7C8FE01
:104FD0002046BDE810400121FFF77AB9502080F348
:104FE0001188BFF34F8FBFF36F8FFEE718000020CB
:104FF00070B514460D4668B10A4909681831FFF7C3
:10500000C7FE0CB14FF0FF3521462846BDE8704081
:10501000FFF75EB9502080F31188BFF34F8FBFF3C5
:105020006F8FFEE71800002030B587B0002403948E
:1050300005AA04A903A80494FFF76EFEDDE90301A5
:105040000094CDE90110002315A11748059A00F03E
:1050500004FC164D0028E8621FD000F08FFE0128E6
:1050600009D0401C19D1502080F31188BFF34F8F15
:10507000BFF36F8FFEE7502080F31188BFF34F8F8F
:10508000BFF36F8F4FF0FF30A86201206861EC60C2
:1050900007B0BDE8304000F0A5B807B030BD000053
:1050A00049444C45000000006945000818000020F4
:1050B0000248016B491C0163704700001800002082
:1050C000164810B5016B11B10121C16110BD00215D
:1050D000C1610169124A01E0B9B1491E01EB8103C6
:1050E00052F82330002BF7D001EB810302EB83024F
:1050F00002F1080453685B685360A34201D15B6806
:105100005360DA680260016110BD502080F311889D
:10511000BFF34F8FBFF36F8FFEE700001800002032
:105120007402002038B50C4CD4F88010814211D1A3
:105130000020009000231A460321D4F8840000F0D8
:105140004DFEE06F01B00023BDE830400322194658
:1051500000F0AEBB38BD0000084B00200549D1F877
:105160008420824205D100230322C86FFF2100F072
:105170009FBB7047084B002030B5044690F8720082
:1051800004F15C010144801E09884DBAC1B204F1EA
:105190005E00FEF7ABFFA84205D034F8580F401C64
:1051A0002080FF2030BD94F85F10080606D534F843
:1051B000580F401C20806FF0040030BD084A0020CA
:1051C000135C8B4201D1002030BD401CC0B20828C6
:1051D000F6D334F8580F401C2080012030BD000069
:1051E000F45E00081CB537480168374A914207D180
:1051F000502080F31188BFF34F8FBFF36F8FFEE70E
:1052000000683149491E884207D1502080F3118837
:10521000BFF34F8FBFF36F8FFEE72C4908780190E3
:10522000FF20087008788DF800009DF800009DF8B8
:10523000002000F0F000904207D0502080F3118849
:10524000BFF34F8FBFF36F8FFEE79DF80000204C38
:1052500000F0500020700720A06005E09DF80020BD
:1052600052008DF80020401E9DF800201206F5D453
:10527000A060032807D0502080F31188BFF34F8F20
:10528000BFF36F8FFEE74FF44070A0600198087085
:105290000C482030016841F470010160016841F060
:1052A00070410160FFF7E6FD00206060FBF736F813
:1052B0000848016841F040410160FBF71BF80020FD
:1052C0001CBD000000ED00E071C20F4100E400E0F1
:1052D0008C00002034EF00E010B5502080F31188DE
:1052E000BFF34F8FBFF36F8F00F0F0FB18B104498D
:1052F0004FF080500860002080F3118810BD00003E
:1053000004ED00E0F8B517460E46050013D005FB86
:1053100006F05030FFF7CEFB04000AD0002084F8DE
:10532000460004F150023B46314628460094FFF700
:105330004BF92046F8BD502080F31188BFF34F8F02
:10534000BFF36F8FFEE738B5049D18B153B1CAB1F2
:1053500081B120E0502080F31188BFF34F8FBFF35D
:105360006F8FFEE7502080F31188BFF34F8FBFF39C
:105370006F8FFEE7502080F31188BFF34F8FBFF38C
:105380006F8FFEE739B1502080F31188BFF34F8F44
:10539000BFF36F8FFEE750241C46012384F846308C
:1053A0002B460094FFF710F9204638BD70B50D4626
:1053B000040025D0FFF7F8FCD4E90F20216802FB98
:1053C0000011A1600021A163216861600A46D4E94F
:1053D0000F01401E00FB0121E16021464FF0FF302C
:1053E00001F8440F487004F110008DB1FFF7AAFCDA
:1053F00004F12400FFF7A6FCFFF7F6FC012070BDC6
:10540000502080F31188BFF34F8FBFF36F8FFEE7FB
:1054100021690029F0D000F0FDFB0028ECD0044900
:105420004FF080500860BFF34F8FBFF36F8FE3E7FB
:1054300004ED00E02DE9FF4782B01D468A464FF09B
:105440000008040003D0BAF1000F08D011E050208A
:1054500080F31188BFF34F8FBFF36F8FFEE7206C8F
:1054600038B1502080F31188BFF34F8FBFF36F8F97
:10547000FEE7022D0AD1E06B012807D0502080F30F
:105480001188BFF34F8FBFF36F8FFEE700F002FB71
:105490003F4F4FF000094FF0805648B9049838B19B
:1054A000502080F31188BFF34F8FBFF36F8FFEE75B
:1054B000FFF77AFCA06BE16B884207D3022D05D081
:1054C0000498D0B1B8F1000F1AD01EE02A46514618
:1054D0002046FEF7D2FF616A19B104F1240000F002
:1054E00099FB20B13E60BFF34F8FBFF36F8FFFF783
:1054F0007BFC012006B0BDE8F087FFF775FC22E0D9
:105500006846FFF74FFD4FF00108FFF76DFCFFF70E
:10551000CFFDFFF749FC94F94400401C01D184F809
:10552000449094F94500401C01D184F84590FFF760
:105530005BFC04A9684600F029F930B12046FFF76A
:1055400083FA00F09FFB0020D4E7FFF72DFCA06B4F
:10555000E16B884213D1FFF747FC04F11000049976
:10556000FFF72EFD2046FFF76FFA00F08BFB0028B7
:105570009ED13E60BFF34F8FBFF36F8F98E7FFF769
:1055800033FC2046FFF760FA00F07CFB90E7000058
:1055900004ED00E02DE9F0471F46904689460400DF
:1055A00003D0B9F1000F08D011E0502080F311882A
:1055B000BFF34F8FBFF36F8FFEE7206C38B15020E1
:1055C00080F31188BFF34F8FBFF36F8FFEE7022F79
:1055D0000AD1E06B012807D0502080F31188BFF377
:1055E0004F8FBFF36F8FFEE7FFF756FC5020EFF3AE
:1055F000118680F31188BFF34F8FBFF36F8FA06BBD
:10560000E16B884206D3022F04D0002086F3118874
:10561000BDE8F08794F94550A06B3A4649462046CC
:10562000FEF72BFF681C04D06D1C84F84550012048
:10563000ECE7606A0028FAD004F1240000F0EAFAEE
:105640000028F4D0B8F1000FF1D00121C8F8001003
:10565000EDE700002DE9F747002683B08A460400F5
:1056600003D0BAF1000F08D011E0502080F3118868
:10567000BFF34F8FBFF36F8FFEE7206C38B1502020
:1056800080F31188BFF34F8FBFF36F8FFEE700F0F9
:1056900001FADFF8F4804FF000094FF0805748B965
:1056A000059838B1502080F31188BFF34F8FBFF3B6
:1056B0006F8FFEE7FFF778FBA56BC5B1514620461B
:1056C000FEF7C8FE6D1EA563206950B104F11000FD
:1056D00000F0A0FA28B1C8F80070BFF34F8FBFF3F5
:1056E0006F8FFFF781FB012006B0BDE8F0870598BA
:1056F00008B11EB106E0FFF777FB27E06846FFF729
:1057000051FC0126FFF770FBFFF7D2FCFFF74CFBC3
:1057100094F94400401C01D184F8449094F9450068
:10572000401C01D184F84590FFF75EFB05A968464F
:1057300000F02CF8002820460AD0FFF785F900F089
:10574000A1FA2046FFF714F80028B3D00020CBE7D9
:10575000FFF70EF890B104F124000599FFF730FC33
:105760002046FFF771F900F08DFA0028A2D1C8F8A1
:105770000070BFF34F8FBFF36F8F9BE72046FFF79B
:1057800063F900F07FFA95E704ED00E02DE9F041C0
:105790000C46050011D0C4B1FFF706FB174BDA68C1
:1057A0006E682068911B471C17D02F681B6A9F42A8
:1057B00019D0964217D8012410E0502080F31188A8
:1057C000BFF34F8FBFF36F8FFEE7502080F3118838
:1057D000BFF34F8FBFF36F8FFEE70024FFF704FB8B
:1057E0002046BDE8F081884205D9401A206028464D
:1057F000FFF7D8FBF1E700202060DCE7180000206D
:105800002DE9FF5F8346DDE90E87994616468A46F5
:105810009000FFF74FF905001CD05C20FFF74AF914
:10582000040014D00020256384F85900CDE902401B
:10583000CDE900874B46324651465846FEF7D6FE24
:105840002046FEF773FD012004B0BDE8F09F284616
:10585000FFF7DEFA4FF0FF30F6E7F0B585B0DDE98F
:105860000B640A9DA6B1DCB15C2700972663022673
:1058700084F85960002604AFCDE90246CDE900570F
:10588000FEF7B4FE2046FEF751FD049805B0F0BDCA
:10589000502080F31188BFF34F8FBFF36F8FFEE767
:1058A000502080F31188BFF34F8FBFF36F8FFEE757
:1058B0002DE9F0411F4690460D46012690B1044661
:1058C000FFF772FA0FB1606D386094F8580002214A
:1058D00084F85810B8F1050F19D2DFE808F0230B4F
:1058E0000E141200502080F31188BFF34F8FBFF3C6
:1058F0006F8FFEE7616D294301E0616D491C6165B1
:1059000010E0022801D065650CE0002634E0616DEE
:10591000491C07D0502080F31188BFF34F8FBFF38D
:105920006F8FFEE7012827D1201DFFF7CFF9154D16
:10593000E06A2969884200D92861134900EB800098
:1059400001EB8000211DFFF723FAA06A38B1502037
:1059500080F31188BFF34F8FBFF36F8FFEE7E06ACC
:105960002968C96A884207D908494FF08050086001
:10597000BFF34F8FBFF36F8FFFF736FA3046BDE8A6
:10598000F0810000180000207402002004ED00E007
:105990002DE9F0471F46DDF8209092460D460400A1
:1059A0004FF001081AD0FFF777FA5020EFF3118675
:1059B00080F31188BFF34F8FBFF36F8F0FB1606D0E
:1059C000386094F85800022184F85810BAF1050F95
:1059D0001AD2DFE80AF0240B0E141200502080F3D4
:1059E0001188BFF34F8FBFF36F8FFEE7616D2943BF
:1059F00001E0616D491C616511E0022801D0656517
:105A00000DE04FF0000839E0616D491C07D05020CF
:105A100080F31188BFF34F8FBFF36F8FFEE701282C
:105A20002CD1A06A38B1502080F31188BFF34F8F7A
:105A3000BFF36F8FFEE7144D286B18B104F1180106
:105A400012480DE0201DFFF741F9E06A29698842FC
:105A500000D928610E4900EB800001EB8000211D78
:105A6000FFF796F9E06A2968C96A884206D90120D9
:105A7000B9F1000F01D0C9F80000E86186F3118880
:105A80004046BDE8F087000018000020FC0600201A
:105A9000740200200548416919B1006B18B100205B
:105AA0007047012070470220704700001800002056
:105AB0000148C068704700001800002010B5FFF7CB
:105AC000EBF90148C06810BD180000202DE9F04135
:105AD0002E4C0027206B28B1A069401CA0613846DD
